S00E0000666F72646F6E2E737265638E
S11300000C9434000C9485050C949C050C945100BC
S11300100C9451000C9451000C9466020C94DD0471
S11300200C9451000C9451000C9451000C94510008
S11300300C9451000C9451000C9451000C945100F8
S11300400C9451000C9451000C9410010C94510028
S11300500C9451000C9451000C9451000C945100D8
S11300600C9451000C94510011241FBECFEFD8E022
S1130070DEBFCDBF12E0A0E0B1E0E2E8FAE102C0E9
S113008005900D92A039B107D9F724E0A0E9B2E0B8
S113009001C01D92AF3EB207E1F70E94DA020C9450
S11300A03F0D0C9400002A9A08952A9808950E94FE
S11300B05500399A419820E52A95F1F78FE798E39E
S11300C021E0815090402040E1F700C0000089E326
S11300D00E94D00880E58A95F1F78DE10E94D0084E
S11300E090E59A95F1F780E50E94D00820E52A95DD
S11300F0F1F78CE60E94D00880E58A95F1F78CE749
S11301000E94D00890E59A95F1F788E30E94D00800
S113011020E52A95F1F78CE00E94D00880E58A95C5
S1130120F1F781E00E94D00887EB9BE00197F1F79B
S113013000C0000086E00E94D00890E59A95F1F78F
S11301400C9453000E945500419880E58A95F1F77C
S113015081E00E94D00887EB9BE00197F1F700C093
S113016000000C945300CF93C82F0E945500419A6D
S113017080E58A95F1F78C2F0E94D008CF910C94DA
S113018053000F931F93CF93DF9300E010E0C82F29
S1130190D0E00C171D0734F480E20E94B3000F5F17
S11301A01F4FF7CFDF91CF911F910F9108950E94B8
S11301B05500419880E58A95F1F782E00E94D008C5
S11301C087EB9BE00197F1F700C000000C9453000B
S11301D0389A0895409A0895409808958A3019F4F9
S11301E00E94EE0002C00E94B30080E090E00895F7
S11301F0F8941092B000E1EBF0E010821092B2009B
S11302008FEF8093B30080818260808380818760D8
S11302108083E0E7F0E080818260808378940895B1
S11302201F920F920FB60F9211242F933F934F9367
S11302305F936F937F938F939F93AF93BF93EF934A
S1130240FF93CF93DF9300D000D0CDB7DEB70E94E9
S113025098098A3059F0E091D902F0E0E057FD4F57
S113026080838091D9028F5F8093D902E091D90273
S1130270F0E0E157FD4F80818E3209F010C11092F9
S1130280D90280919002883631F178F4823609F4EB
S11302909AC020F4803509F4F5C001C1843609F40C
S11302A0B7C0873609F47AC0FAC08E3609F450C054
S11302B030F48B3609F46DC08D3689F0F0C0803788
S11302C009F4CFC0843709F0EAC081E380930F01B9
S11302D082E090E030C0A8951092D802E0C08091EE
S11302E0D702811125C080910E01811121C0809116
S11302F0D8028C30E8F480919202813319F40E9480
S1130300D30402C00E94B40480919502813319F48D
S11303100E94B10402C00E94AE04809193028053F3
S11303200E9474048091960280530E949104B7C085
S11303300E94D604B4C0FC01E057FD4F2081FC01AB
S1130340E25FFE4F2083019682319105A1F7A7C099
S11303500E94D6040E94EA0081E08093D702809133
S113036091028E3209F49BC081E380930F0182E0F5
S113037090E0FC01E057FD4F2081FC01E25FFE4F5D
S11303802083019682319105A1F781E08093D20206
S113039086C01092D7020E94EC0081C08091920224
S11303A0803341F40E94DB0581E00E943B041092FB
S11303B0D30275C00E94D40583E00E943B0481E00F
S11303C08093D3026CC080919202833339F480917C
S11303D09402803319F40E940B0661C0809192024A
S11303E0833319F40E9409065AC08091920284331F
S11303F031F480919402803311F481E006C080913D
S11304009202843309F04BC082E08093D40247C047
S113041080919202833349F480919402813329F4C8
S11304200E94C60510920E013AC080919202833355
S113043061F480919402803341F40E94D6040E94B6
S1130440CD0581E080930E012AC08091920284330D
S113045031F580919402813311F581E08093D102CA
S11304601EC0809192028983809193028A83809135
S113047094028B83809195028C83CE0101960E9415
S1130480F5050DC045E050E064E271E080E992E0DA
S11304900E94220A892B19F481E08093D5020F90DF
S11304A00F900F900F90DF91CF91FF91EF91BF913B
S11304B0AF919F918F917F916F915F914F913F91F8
S11304C02F910F900FBE0F901F9018951F920F92AF
S11304D00FB60F9211242F933F934F935F936F9313
S11304E07F938F939F93AF93BF93EF93FF9381E099
S11304F0809320019091D8029C3019F48093D0020B
S11305000BC08091D8028C3018F00E94D60409C028
S11305108091DA02811105C08091D8028F5F8093A7
S1130520D802FF91EF91BF91AF919F918F917F91ED
S11305306F915F914F913F912F910F900FBE0F904C
S11305401F90189552985A9A53985B9AE9E6F0E0EE
S113055080818E6080838DB383608DBB0895F89411
S113056080E091E09093EC048093EB040E94C70830
S11305700E9457000E9481090E94E80085E49FE3DD
S11305800E94AF080E942A092FEF89E698E12150C2
S113059080409040E1F700C000000E94CD050E9419
S11305A0B7040E94B7090E94F8000E94A20278943E
S11305B0A8950895CF93DF93CDB7DEB7A5970FB66F
S11305C0F894DEBF0FBECDBF0E94AF0245E060E0ED
S11305D08AE291E00E94A109412C512C1DA2612CB8
S11305E0312C712C6E0123E1C20ED11C0E94E20554
S11305F0182F84FF09C0711011C047E060E080E348
S113060091E00E94A1090AC0772051F047E060E020
S113061088E391E00E94A109712C02C077247394AD
S1130620312F3870232E13FF0BC031100BC00E94E2
S1130630D60445E060E080E491E00E94A10902C094
S1130640312C02C033243394012F047012FF0BC0E9
S113065061100BC00E94D60445E060E086E491E09E
S11306600E94A10902C0612C02C066246394809197
S1130670D202882341F01092D20245E060E08CE47B
S113068091E00E94A1098091D102882341F0109247
S1130690D10245E060E082E591E00E94A1098091E9
S11306A0D002882341F01092D00245E060E088E552
S11306B091E00E94A1090E94D608F8940E94F808CB
S11306C0F82E0E941109E82E86E18F1540F08091E2
S11306D0D30281110CC083E00E943B0408C08091C6
S11306E0D302811113C081E00E943B040FC091E149
S11306F09F1560F08091D60281110BC00E94D60430
S113070021E02093D60220930E010AC091E19E15A8
S113071088F734E13F1520F43E1510F41092D60208
S1130720789480910F01813369F08091D5028823F8
S113073029F146E060E08EE591E00E94A109109263
S1130740D5021CC080E380930F010E94A20080E2C6
S11307500E94C100AA24A394B12CF501E15FFE4FCD
S113076080818E3211F380810E94B3009FEFA91A19
S1130770B90A21E1A216B10481F7D7CF3FE03F15B2
S113078048F051100CC045E060E085E691E00E941D
S1130790A10905C083E18F1520F4512C02C0552412
S11307A053949FE09E1548F041100CC045E060E072
S11307B085E691E00E94A10905C023E12E1520F4ED
S11307C0412C02C04424439480912001882309F4DD
S11307D00DCF10922001802E912C9594879495949E
S11307E08794A22CB12C93E0B594A7949A95E1F741
S11307F0812F90E08095909585FB222420F89F928C
S11308008F92BF92AF921F922F921F92FF921F92CC
S1130810EF928BE691E09F938F93DF92CF920E94A9
S1130820550ABE016F5F7F4FC6010E94120A0FB6C0
S1130830F894DEBF0FBECDBF892B51F041E160E0DB
S1130840C6010E94A109B601CE0101960E941B0AAD
S1130850082D2A2D422D6F2D8E2D0E94C20915FFC1
S113086002C01DA2C3CE3DA13111C0CE0E9490088A
S113087081E08DA3BBCE282F809121019091E602C7
S1130880899F802D11248093E6028091210190910B
S1130890E502899F802D11248093E5028091E60270
S11308A0622F0E94060A8093E6028091E5020E946C
S11308B0060A8093E502209321010895815089302E
S11308C030F4E82FF0E0EF56FE4F8081089580E089
S11308D008958150893030F4E82FF0E0E857FE4F56
S11308E08081089580E00895CF93C82F0E945E040C
S11308F06091210120912101220F922F990F990FCC
S1130900290F2B5F0E94060A280F28BD8C2F0E94F6
S11309106904609121010E94060A8093E602CF9146
S11309200895CF93C82F0E945E0460912101209105
S11309302101220F922F990F990F290F2B5F0E94EB
S1130940060A280F27BD8C2F0E946904609121019B
S11309500E94060A8093E502CF910895289A5F9831
S1130960089528985F9A08952F982E9A0895F894D8
S113097017BC18BC84B5806A84BD84B58B6084BD03
S113098085B5816085BD8AB180668AB9279A509AF7
S1130990269A279A0E94B4040E94AE048AB1837FE7
S11309A08AB9789408952F9A2E98089517BC18BC84
S11309B01092E6021092E50208951F920F920FB66C
S11309C00F9211242F933F938F939F938091DD0275
S11309D09091DE0201969093DE028093DD02809175
S11309E0DB029091DC0201969093DC028093DB029F
S11309F08091E602811101C018BC8091E502811149
S1130A0001C017BC8091DD029091DE020A9700F1CB
S1130A108091E1029091E202982F990F990F890F2A
S1130A208093DF021092E2021092E1028091E302CD
S1130A309091E402982F990F990F890F8093E00207
S1130A401092E4021092E3021092DE021092DD0290
S1130A508091E602811105C08091E502882309F4A2
S1130A604BC08091DB029091DC02039708F444C0F0
S1130A7088B5813E68F42091DF028091E60230E07F
S1130A8090E00797281739071CF488B58E5F88BD56
S1130A9088B58F3168F02091DF028091E60230E062
S1130AA090E00796821793071CF488B5825088BD9E
S1130AB087B5813E68F42091E0028091E50230E040
S1130AC090E00797281739071CF487B58E5F87BD18
S1130AD087B58F3168F02091E0028091E50230E023
S1130AE090E00796821793071CF487B5825087BD60
S1130AF01092DC021092DB029F918F913F912F9113
S1130B000F900FBE0F901F9018951F920F920FB663
S1130B100F9211248F939F938091E1029091E202AE
S1130B2001969093E2028093E1029F918F910F903E
S1130B300FBE0F901F9018951F920F920FB60F9231
S1130B4011248F939F938091E3029091E402019684
S1130B509093E4028093E3029F918F910F900FBED4
S1130B600F901F901895F89480E70E9430098091A7
S1130B70230180959091E702892390912201892B8A
S1130B800E945C090E94540978940895809122017E
S1130B908D7F809322010C94B305809122018260A1
S1130BA0809322010C94B305809122018E7F80935F
S1130BB022010C94B305809122018160809322016B
S1130BC00C94B305CF93F89481E70E9430090E94F6
S1130BD06D09C82F0E9477090E9454097894C09522
S1130BE0809123018C23CF910895CF93C091E80283
S1130BF044E0C49F9001112444E050E0BC01C901C9
S1130C0087519D4F0E94300ACF5FC093E802CF9175
S1130C100895219A089521980895CF93DF93EC01C4
S1130C2043E050E06AE971E00E94220A892B19F43A
S1130C3083EE9EEE33C243E050E06EE971E0CE01F4
S1130C400E94220A892B19F48AE791EE27C243E015
S1130C5050E062EA71E0CE010E94220A892B19F465
S1130C6082ED94ED1BC243E050E066EA71E0CE01F0
S1130C700E94220A892B19F480EE98EC0FC243E0FB
S1130C8050E06AEA71E0CE010E94220A892B19F42D
S1130C908AE99DEB03C243E050E06EEA71E0CE01C5
S1130CA00E94220A892B19F486EF92EBF7C143E0E4
S1130CB050E062EB71E0CE010E94220A892B19F404
S1130CC08AEE98EAEBC143E050E066EB71E0CE01B6
S1130CD00E94220A892B19F48FE69FE9DFC143E0C1
S1130CE050E06AEB71E0CE010E94220A892B19F4CC
S1130CF08CE796E9D3C143E050E06EEB71E0CE019E
S1130D000E94220A892B19F48AE09EE8C7C143E0B5
S1130D1050E062EC71E0CE010E94220A892B19F4A2
S1130D2081E196E8BBC143E050E066EC71E0CE019E
S1130D300E94220A892B19F48BE89EE7AFC143E095
S1130D4050E06AEC71E0CE010E94220A892B19F46A
S1130D5081E797E7A3C143E050E06EEC71E0CE0178
S1130D600E94220A892B19F48CEB90E797C143E087
S1130D7050E062ED71E0CE010E94220A892B19F441
S1130D8088E69AE68BC143E050E066ED71E0CE015F
S1130D900E94220A892B19F48FE694E67FC143E06E
S1130DA050E06AED71E0CE010E94220A892B19F409
S1130DB08CEC9EE573C143E050E06EED71E0CE0132
S1130DC00E94220A892B19F48AE799E567C143E056
S1130DD050E062EE71E0CE010E94220A892B19F4E0
S1130DE084E794E55BC143E050E066EE71E0CE0138
S1130DF00E94220A892B19F487EB9FE44FC143E038
S1130E0050E06AEE71E0CE010E94220A892B19F4A7
S1130E108DE39BE443C143E050E06EEE71E0CE010C
S1130E200E94220A892B19F484E097E437C143E035
S1130E3050E062EF71E0CE010E94220A892B19F47E
S1130E4088E093E42BC143E050E066EF71E0CE010B
S1130E500E94220A892B19F485E49FE31FC143E011
S1130E6050E06AEF71E0CE010E94220A892B19F446
S1130E7088EB9BE313C143E050E06EEF71E0CE01D9
S1130E800E94220A892B19F48DE598E307C143E0F7
S1130E9050E062E072E0CE010E94220A892B19F42C
S1130EA083E395E3FBC043E050E066E072E0CE01EB
S1130EB00E94220A892B19F487E392E3EFC043E0EE
S1130EC050E06AE072E0CE010E94220A892B19F4F4
S1130ED085E69FE2E3C043E050E06EE072E0CE01BD
S1130EE00E94220A892B19F48CEB9CE2D7C043E0C0
S1130EF050E062E172E0CE010E94220A892B19F4CB
S1130F0089E39AE2CBC043E050E066E172E0CE01AF
S1130F100E94220A892B19F48BED97E2BFC043E0AB
S1130F2050E06AE172E0CE010E94220A892B19F492
S1130F308EE995E2B3C043E050E06EE172E0CE0189
S1130F400E94220A892B19F481E893E2A7C043E0A6
S1130F5050E062E272E0CE010E94220A892B19F469
S1130F6083E891E29BC043E050E066E272E0CE0188
S1130F700E94220A892B19F482EA9FE18FC043E080
S1130F8050E06AE272E0CE010E94220A892B19F431
S1130F908BED9DE183C043E050E06EE272E0CE0150
S1130FA00E94220A892B19F48EE29CE177C043E067
S1130FB050E062E372E0CE010E94220A892B19F408
S1130FC089E99AE16BC043E050E066E372E0CE0148
S1130FD00E94220A892B19F48BE199E15FC043E056
S1130FE050E06AE372E0CE010E94220A892B19F4D0
S1130FF082EB97E153C043E050E06EE372E0CE0130
S11310000E94220A892B19F48DE596E147C043E03A
S113101050E062E472E0CE010E94220A892B19F4A6
S11310208CE195E13BC043E050E066E472E0CE0120
S11310300E94220A892B19F48DEE93E12FC043E01C
S113104050E06AE472E0CE010E94220A892B19F46E
S11310508EEC92E123C043E050E06EE472E0CE01F6
S11310600E94220A892B19F480EC91E117C043E015
S113107050E062E572E0CE010E94220A892B19F445
S113108081EC90E10BC043E050E066E572E0CE01F4
S11310900E94220A892B31F480ED9FE0909389000D
S11310A0809388008881803311F00E9409068B8127
S11310B08233B9F050F4813329F52FEF89E698E1B2
S11310C0215080409040E1F71BC0843391F0883375
S11310D0C9F42FE38DE093E0215080409040E1F784
S11310E00FC02FEF84E39CE0215080409040E1F753
S11310F007C02FE78AE196E0215080409040E1F755
S113110000C000000E940B062FE788E391E0215005
S113111080409040E1F700C00000DF91CF91089536
S11311201F93CF93DF93C9EED2E010E088818D3214
S113113039F0CE010E940D061F5F24961038B1F7D6
S1131140DF91CF911F910C940B06E9EEF2E080E061
S11311509DE290838F5F34968038D9F70895CF93BA
S1131160DF93EC010E94A508219AE1E8F0E0808178
S113117089608083D0938900C0938800E0E8F0E020
S11311808081806480832198DF91CF91089584B118
S11311908F6284B9249829988CB581658CBD089593
S11311A08EBD0DB407FEFDCF8EB50895F89480EE84
S11311B00E94300980E00E945C0981E50E945C097C
S11311C00E9454098AEE0E94300980E00E945C0962
S11311D081E50E945C090E94540978942FE785EB0D
S11311E091E0215080409040E1F700C00000089554
S11311F0CF9380EE0E94300983E00E945C0981EE67
S11312000E9452090E946D09C82F0E9477090E940A
S11312105409CC3018F084EF8C0F01C080E0CF91DA
S11312200895CF938AEE0E94300983E00E945C09FE
S11312308BEE0E9452090E946D09C82F0E94770903
S11312400E945409CC3018F084EF8C0F01C080E068
S1131250CF9108951092B90080E28093B800089568
S113126094EA9093BC009091BC0097FFFCCF9091BE
S1131270B900987F983021F0903111F081E0089501
S11312808093BB0084E88093BC008091BC0087FFFE
S1131290FCCF8091B900887F883111F0803471F7D8
S11312A080E008950C94300984E98093BC00809117
S11312B0BC0084FDFCCF08958093BB0084E8809338
S11312C0BC008091BC0087FFFCCF9091B900987F4F
S11312D081E0983209F480E0089584EC8093BC00A6
S11312E08091BC0087FFFCCF8091BB00089584E807
S11312F08093BC008091BC0087FFFCCF8091BB0031
S113130008951092C50083E38093C400E1ECF0E0FB
S1131310808188698083E2ECF0E080818E60808344
S113132008959091C00095FFFCCF8093C600089566
S11313308091C00087FF03C08091C600089580E0BB
S113134008950F931F93CF93DF938C01C62FD42F4F
S1131350CD1740F4F801EC0FF11D80810E94910932
S1131360CF5FF6CFDF91CF911F910F910895F8943D
S1131370A895E0E6F0E080818861808384E480833E
S113138078940895FF920F931F93CF93DF93182FB0
S1131390F62EC42FD22F0E94D7001F92FF921F92C5
S11313A01F938AE592E09F938F930E943F0A1F92B6
S11313B0DF938DE692E09F938F930E943F0A8DB74F
S11313C09EB70A960FB6F8949EBF0FBE8DBFCC236E
S11313D019F082E792E002C081E892E09F938F9334
S11313E00E943F0A0F900F901F920F938DE692E098
S11313F09F938F930E943F0A0F900F900F900F902E
S1131400DF91CF911F910F91FF900895991B79E07F
S113141004C0991F961708F0961B881F7A95C9F780
S113142080950895FB01DC018D91019080190110D4
S1131430D9F3990B0895FB01DC0101900D92002072
S1131440E1F70895FB01DC014150504030F08D91EB
S11314500190801919F40020B9F7881B990B08959D
S1131460FB01DC014150504048F001900D920020F6
S1131470C9F701C01D9241505040E0F70895A0E023
S1131480B0E0E5E4FAE00C94180DAE014B5F5F4F59
S1131490FA0161917191AF018091EB049091EC0498
S11314A00E94770AE2E00C94340DAEE0B0E0EBE584
S11314B0FAE00C94160D0D891E8986E08C831A833C
S11314C009838FEF9FE79E838D83AE01475E5F4F55
S11314D06F89788DCE0101960E94770AEF81F88595
S11314E0E00FF11F10822E96E4E00C94320DABE075
S11314F0B0E0EDE7FAE00C94080D6C017B018A0181
S1131500FC0117821682838181FFCCC1CE01019632
S11315103C01F6019381F70193FD859193FF81913D
S11315207F01882309F4BAC1853239F493FD85918A
S113153093FF81917F01853229F4B60190E00E94E6
S11315406E0CE7CF912C212C312CFFE1F315D8F050
S11315508B3279F038F4803279F08332A1F4232D80
S113156020611DC08D3261F0803369F4232D216028
S113157016C0832D8260382EE32DE4603E2E2AC0EF
S1131580F32DF8601DC037FC2DC020ED280F2A3044
S113159040F08E32B9F436FC81C1232D2064322E02
S11315A019C036FE06C08AE0989E200D1124922EA2
S11315B011C0EAE02E9E200D1124222EF32DF0629C
S11315C03F2E08C08C3621F4832D8068382E02C04B
S11315D0883641F4F70193FD859193FF81917F0152
S11315E08111B3CF982F9F7D9554933028F40C5FCD
S11315F01F4F9FE399830DC0833631F0833771F019
S1131600833509F059C021C0F801808189830E5FB8
S11316101F4F88248394912C530113C02801F2E0B6
S11316204F0E511CF801A080B18036FE03C0692D15
S113163070E002C06FEF7FEFC5010E94630C4C01A4
S11316408201F32DFF773F2E16C0280122E0420EBF
S1131650511CF801A080B18036FE03C0692D70E0F2
S113166002C06FEF7FEFC5010E94580C4C01F32DAF
S1131670F0683F2E820133FC1BC0822D90E0881657
S11316809906B0F4B60180E290E00E946E0C2A94B0
S1131690F4CFF50137FC859137FE81915F01B601E6
S11316A090E00E946E0C21102A9421E0821A910885
S11316B08114910471F7E8C0843611F0893641F53C
S11316C0F80137FE07C060817181828193810C5FCC
S11316D01F4F08C060817181072E000C880B990B85
S11316E00E5F1F4FF32DFF763F2E97FF09C0909595
S11316F08095709561957F4F8F4F9F4FF0683F2E77
S11317002AE030E0A3010E94AA0C882E861845C066
S1131710853731F4232D2F7EB22E2AE030E025C008
S1131720932D997FB92E8F36C1F018F4883579F04E
S1131730B5C0803719F0883721F0B0C0E92FE061D7
S1131740BE2EB4FE0DC0FB2DF460BF2E09C034FEC6
S11317500AC0292F2660B22E06C028E030E005C05A
S113176020E130E002C020E132E0F801B7FE07C01A
S113177060817181828193810C5F1F4F06C06081FB
S1131780718180E090E00E5F1F4FA3010E94AA0CBC
S1131790882E8618FB2DFF773F2E36FE0DC0232D95
S11317A02E7FA22E891458F434FE0BC032FC09C0DB
S11317B0832D8E7EA82E05C0B82CA32C03C0B82C74
S11317C001C0B92CA4FE0FC0FE01E80DF11D8081FB
S11317D0803321F49A2D997EA92E09C0A2FE06C059
S11317E0B394B39404C08A2D867809F0B394A3FC0F
S11317F011C0A0FE06C0B21488F4280C922C9B18C9
S11318000EC0B21460F4B60180E290E00E946E0C47
S1131810B394F7CFB21418F42B1802C0982C212CCF
S1131820A4FE10C0B60180E390E00E946E0CA2FEFC
S113183017C0A1FC03C088E790E002C088E590E0EF
S1131840B6010CC08A2D867859F0A1FE02C08BE245
S113185001C080E2A7FC8DE2B60190E00E946E0C0C
S1131860891438F4B60180E390E00E946E0C9A94D7
S1131870F7CF8A94F301E80DF11D8081B60190E061
S11318800E946E0C8110F5CF222009F442CEB601DD
S113189080E290E00E946E0C2A94F6CFF6018681D5
S11318A0978102C08FEF9FEF2B96E2E10C94240DF9
S11318B0FC010590615070400110D8F78095909517
S11318C08E0F9F1F0895FC0161507040019001101C
S11318D0D8F7809590958E0F9F1F08950F931F93AF
S11318E0CF93DF93FB01238121FD03C08FEF9FEF93
S11318F02CC022FF16C046815781248135814217AE
S1131900530744F4A081B1819D012F5F3F4F318380
S113191020838C93268137812F5F3F4F3783268323
S113192014C08B01EC01FB010084F185E02D0995C5
S1131930892BE1F6D80116968D919C911797019603
S113194017969C938E931697CE01DF91CF911F919A
S11319500F910895FA01AA27283051F1203181F11D
S1131960E8946F936E7F6E5F7F4F8F4F9F4FAF4FA3
S1131970B1E03ED0B4E03CD0670F781F891F9A1FB6
S1131980A11D680F791F8A1F911DA11D6A0F711D6A
S1131990811D911DA11D20D009F468943F912AE076
S11319A0269F11243019305D3193DEF6CF0108955E
S11319B0462F4770405D4193B3E00FD0C9F7F6CF8F
S11319C0462F4F70405D4A3318F0495D31FD405257
S11319D0419302D0A9F7EACFB4E0A69597958795ED
S11319E077956795BA95C9F70097610571050895CC
S11319F09B01AC010A2E0694579547953795279578
S1131A00BA95C9F7620F731F841F951FA01D08950F
S1131A102F923F924F925F926F927F928F929F92FA
S1131A20AF92BF92CF92DF92EF92FF920F931F93E8
S1131A30CF93DF93CDB7DEB7CA1BDB0B0FB6F89499
S1131A40DEBF0FBECDBF09942A88398848885F84D9
S1131A506E847D848C849B84AA84B984C884DF804A
S1131A60EE80FD800C811B81AA81B981CE0FD11D2E
S1131A700FB6F894DEBF0FBECDBFED010895F89404
S1051A80FFCF92
S1131A820000000200000000EE000000000001203F
S1131A920000000000000000000000000000000040
S1131AA20101FF3C50494E472E00762C332E0A008A
S1131AB2622C342C312E0A00622C342C302E0A0073
S1131AC2662C302E0A00662C312E0A00662C322E29
S1131AD20A00662C332E0A00662C342E0A00504F5C
S1131AE24E472E0A00662C352E0A00732C253033FD
S1131AF2642C253033642C253031642C2530316438
S1131B022C253031642E0A00283C505A6E78828C7F
S1131B1296505050505064788CA063333000633335
S1131B22730064333000643373006533300066330A
S1131B3230006633730067333000673373006133F8
S1131B423000613373006233300063343000633435
S1131B5273006434300064347300653430006634D6
S1131B6230006634730067343000673473006134C4
S1131B723000613473006234300063353000633501
S1131B8273006435300064357300653530006635A2
S1131B923000663573006735300067357300613590
S1131BA230006135730062353000633630006336CD
S1131BB2730064363000643673006536300066366E
S1131BC2300066367300673630006736730061365C
S1131BD230006136730062363000463A2530336491
S1131BE2636D2020423A25303364636D0025303121
S1131BF26400202020204D6F74696F6E2020202005
S1131C020020204E6F206D6F74696F6E20202000BB
S9030000FC
